:030000000203995F
:0C039900787FE4F6D8FD75810E0203AFFA
:05038B00120390D2A155
:080390007F017E02DEFEDFFAB0
:010398002242
:0F037C00D2A012038BC2A0120390C2A102039061
:0A03A500C2A012038BD2A002039045
:07024B0012037C7D017FA07E
:04025200AB07A90548
:10025600E4FDFAEBC4131313540124FF92A0EB251B
:10026600E0FB12038BC2A11203900DBD08E5D2A0DC
:10027600120390D2A130A012B9010F0AEAD394C892
:1002860040F3C2A11203907F0022C2A11203907F05
:010296000166
:010297002244
:10029800E4FDFCD2A0120390D2A1120390EC25E059
:1002A800FCA2A0E4334204120390C2A11203900DF1
:0502B800BD08E5AF04E4
:0102BD00221E
:10032B008F0EAC0512024B7D01AF0E120252AF04C1
:08033B00E4FD1202520203A5C9
:02030A00AC073E
:10030C0012024BAF047D0112025212037C7D017F5D
:0E031C00A1120252120298AD071203A5AF05FE
:01032A0022B0
:10036B002020323031372D30382D32322054554544
:01037B000081
:1002BE00C2A78F807F057E001202CFD2A77F057E58
:0102CE00002F
:1002CF00D3EF9400EE9400400B7D6EDDFEEF1F70B8
:0402DF00EF1E80ECA2
:0102E30022F8
:100343007C08C2B07F0A7E001202CFD2B07F0A7E41
:06035300001202CFDCECF9
:010359002281
:09035A00AD0A7F071202E87FC71B
:08036300C2A61202BEC2A722CD
:08000300D2A61202BEC2A72220
:0402E400AD087F0AD8
:1002E800ED75F00A84FCED75F00A84ABF0EF24C0DC
:1002F800FF120363EC2430FF120003EB2430FF02EB
:020308000003F0
:1001C300C2A7E4F50BF50AF508F509F50C7F38121B
:1001D30003637F0C1203637F061203637F01120321
:1001E300637F80120363E4FCEC90036B93FF1200C4
:1001F300031202CB0CBC0FF07FC61203637F3A12CB
:1002030000031202CB7FC91203637F3A1200031269
:1002130002CB7F0112030A8F087F0212030A8F0A9F
:100223007F0312030A8F0B1202E4AD0A7F07120247
:10023300E8AD0B7F041202E8758901758C3C758A61
:07024300B0D2AFD2A9D28CAA
:01024A002291
:10000E0020A3421202CB20A33C050C30A3FD120309
:10001E0043E50CB4010CC28C7FCA1203637F0F122E
:10002E000363E50CB402057FC7120363E50CB4034A
:10003E00057FC4120363E50CB4040AE4F50C7F0CCF
:10004E00120363D28CE50C700302013620A47112E8
:10005E0002CB20A46B30A4FD120343E50CB4011DAA
:10006E000508C3E508648094BC4003E4F508120259
:10007E00E47FCA120363AD087F0112032BE50CB4B3
:10008E000218050AC3E50A648094BC4003E4F50A2D
:10009E0012035AAD0A7F0212032BE50CB40321059D
:1000AE000BC3E50B648094984003E4F50BAD0B7F16
:1000BE00041202E87FC4120363AD0B7F0312032BFD
:1000CE0020A5651202CB20A55F30A5FD120343E5E6
:1000DE000CB401191508E508B4FF0375083B1202AC
:1000EE00E47FCA120363AD087F0112032BE50CB443
:1000FE000214150AE50AB4FF0375083B12035AAD44
:10010E000A7F0212032BE50CB4031D150BE50BB48D
:10011E00FF03750B17AD0B7F041202E87FC41203A9
:09012E0063AD0B7F0312032B22C9
:0803AF001201C312000E80FBD5
:03000B00020137B8
:10013700C0E0C0F0C083C082C0D075D000C000C08E
:1001470001C002C003C004C005C006C007758C3CCF
:10015700758AB00509E50964147046F5090508E5CF
:1001670008643C7032F508050AE50AB43C1B750AB9
:1001770000050BE50BB41803750B00AD0B7F0412DC
:1001870002E8AD0B7F0312032BAD0A7F071202E8CB
:10019700AD0A7F0212032B1202E4AD087F0112039E
:1001A7002BD007D006D005D004D003D002D001D081
:0C01B70000D0D0D082D083D0F0D0E03255
:00000001FF
