:0A01DD003F065B4F666D7D077F6FE4
:0A01D2000808000000000000000013
:10015900D3EF9400EE940040147D6E7C00ED1D7089
:0D016900011CED4C70F7EF1F70E61E80E3E7
:010176002266
:10009A00E4FB74082BF8E69001DD93F580EBB408D5
:1000AA0000504D9000B4F82828730200CC0200D00A
:1000BA000200D80200DC0200E40200E80200F002BA
:1000CA0000F4C2A28002D2A2C2A3C2A48022C2A207
:1000DA008002D2A2D2A3C2A48016C2A28002D2A255
:1000EA00C2A3D2A4800AC2A28002D2A2D2A3D2A45C
:0D00FA007F017E001201590BEB6408709528
:0101070022D5
:0C01BB00C2AF53E71843E70143E780227E
:0901E70053E77FE4F5E6D2AF22F4
:0B01C7001201BB75E64675E6B9002288
:10017700AD07AC068CE3EDF5E453E5F843E5011272
:0801870001C71201E7AFE222FB
:1001A600EE54FEFEF5E3E4F5E453E5F843E5031209
:0501B60001C70201E792
:10018F00AB07AA068AE3EBF5E453E5F843E5028DE6
:07019F00E21201C70201E7B3
:10010800758901758C3C758AB0D2AFD2A9D28C7F23
:10011800007E20120177A907E9C3943C4002E4F964
:10012800E510D394144025E4F51009FF7E20120150
:10013800A6AD017E2012018FB93C02E4F9E975F001
:100148000A84F50EE975F00A8485F00F12009A808A
:01015800CFD7
:03000B000201F0FF
:0901F000758C3C758AB0051032D3
:0300000002000EED
:0C000E00787FE4F6D8FD758110020055E3
:10001A00020108E493A3F8E493A34003F68001F2F3
:10002A0008DFF48029E493A3F85407240CC8C333E7
:10003A00C4540F4420C8834004F456800146F6DFB6
:10004A00E4800B01020408102040809001D2E47E73
:10005A00019360BCA3FF543F30E509541FFEE493AB
:10006A00A360010ECF54C025E060A840B8E493A372
:10007A00FAE493A3F8E493A3C8C582C8CAC583CA9D
:10008A00F0A3C8C582C8CAC583CADFE9DEE780BE55
:0101DC000022
:00000001FF
