:10057C00C2B500C2B600D2B500E4FEEF1392B4EFE0
:10058C00C313FFD2B600C2B6000EBE08EEE4FEEDF9
:10059C001392B4EDC313FDD2B600C2B6000EBE0862
:0405AC00EEC2B500E6
:0105B0002228
:1004F300C2B500C2B600D2B500E4FDEF1392B4EF6B
:10050300C313FFD2B600C2B6000DBD08EE00E4FD72
:10051300A2B4E433FFC43333335480FCEEC3134C2F
:10052300FED2B600C2B6000DBD08E5C2B500D2B614
:0905330000C2B400D2B400AF060E
:01053C00229C
:10053D00E4FD7F8E12057CE4FD7F8012057C7D300D
:10054D007F8212057C7D137F8412057C7D077F865B
:10055D0012057C7D097F8812057C7D047F8A12053A
:0F056D007C7D177F8C12057C7D807F8E02057C44
:10060D00C2A58F807F017E0012061ED2A77F057EB8
:01061D0000DC
:10061E00D3EF9400EE9400400F7DC77C01DCFEDD2D
:08062E00FAEF1F70EB1E80E8DB
:0106360022A1
:0A06E900C2A7C2A612060DC2A72286
:0A06F300C2A7D2A612060DC2A7226C
:10067C007F381206E97F0C1206E97F061206E97F25
:09068C00011206E97F800206E973
:10063700112220323020202D20202D202020202084
:100647002020000D3F2020202020203A20203A2083
:02065700200081
:040695007F057E005F
:10069900D3EF9400EE9400400B7D6EDDFEEF1F70EA
:0406A900EF1E80ECD4
:0106AD00222A
:1006AE00E4FCC2A47F0A7E00120699D2A47F0A7EC1
:0806BE00001206990CBC08EAC9
:0106C6002211
:0405B100AD377F0AD9
:1005B500ED75F00A12065AF508ED75F00A12065A9D
:1005C50085F009EF24C0FF1206E9E5082430FF1283
:0A05D50006F3E5092430FF0206F3E7
:0405DF00AD4C7F0997
:1005E300ED75F00A12065AF508ED75F00A12065A6F
:1005F30085F009EF2480FF1206E9E5082430FF1295
:0A06030006F3E5092430FF0206F3B8
:1002CE008F087F8C1206E9E50814B407004003027C
:1002DE00038A9002EE75F003A4C58325F0C58373DF
:1002EE0002030302031002032502033902034D0227
:1002FE0003610203757F4D1206F31206957F4F02BE
:10030E00037F7F541206F31206957F551206F312E1
:10031E0006957F450203877F571206F31206957FD7
:10032E00451206F31206957F44804E7F541206F353
:10033E001206957F481206F31206957F55803A7F76
:10034E00461206F31206957F521206F31206957F99
:10035E004980267F531206F31206957F411206F34B
:10036E001206957F5480127F531206F31206957F64
:0D037E00551206F31206957F4E1206F3226B
:1006C700EF75F00A84C454F0FEEF75F00A84E5F084
:0306D7004EFF22B1
:0F06DA00EFC4540F75F00AA4FEEF540F2EFF2249
:1004A300C200E4F54FF550753A0112053D12067C82
:1004B300E4F50874222508F8E6FF1206F37F017EAF
:1004C300001206990508E508C3940F40E67FC012A1
:1004D30006E9E4F508743F2508F8E6FF1206F37F02
:0F04E300017E001206990508E508C3940B40E658
:0104F20022E7
:1000030030A0030200DE12069530A0030200DE05D5
:100013005075340130A0FD1206AEE55014B408004B
:1000230040030200DE90003675F003A4C58325F07B
:10003300C5837302004E02005702005B02005F0299
:10004300006302006702006B0200727FCA1206E9B6
:100053007F0F80167FC780127FC4800E7F8C800A3B
:100063007F8980067F8680027F831206E9806CE4A5
:10007300F5507F0C1206E9E4F534FD7F8E12057C02
:10008300AF371206C7AD077F8012057CAF3E12065D
:10009300C7AD077F8212057CAF4E1206C7AD077F3F
:1000A3008412057CAF4C1206C7AD077F8612057C10
:1000B300AF381206C7AD077F8812057CAF3A120628
:1000C300C7AD077F8A12057CAF3C1206C7AD077F19
:1000D3008C12057C7D807F8E12057CE550700302B7
:1000E30002CD30A1030201D312069530A103020110
:1000F300D330A1FD1206AEE55014B407004003024D
:1001030001D390011375F003A4C58325F0C5837350
:1001130002012802014202015F02017C02018F02F7
:1001230001A00201B50537E53770020536643C4589
:10013300367004F536F5371205B17FCA0201D005D2
:100143003EE53E7002053D643C453D7004F53DF5DA
:100153003EAD3E7F071205B57FC78071054EE54E64
:100163007002054D6418454D7004F54DF54EAD4EC6
:100173007F041205B57FC48054053AE53AB40803F9
:10018300753A01AF3A1202CE7F8C8041054CE54CA3
:10019300B42003754C011205DF7F8980300538E5F3
:1001A30038B40D03753801AD387F061205E37F8639
:1001B300801B053CE53C7002053B6464453B7004D1
:1001C300F53BF53CAD3C7F031205E37F831206E963
:1001D30030A2030202CD12069530A2030202CD30F3
:1001E300A2FD1206AEE55014B4070040030202CD8F
:1001F30090020175F003A4C58325F0C58373020241
:100203001602023602025902027C02028B02029893
:100213000202A9E537153770021536E537B4FF0B2F
:10022300E536B4FF0675360075373B1205B17FCA54
:100233000202CAE53E153E7002153DE53EB4FF0BD2
:10024300E53DB4FF06753D00753E3BAD3E7F0712AD
:1002530005B57FC78071E54E154E7002154DE54E0D
:10026300B4FF0BE54DB4FF06754D00754E17AD4E4B
:100273007F041205B57FC4804ED53A03753A07AFA4
:100283003A1202CE7F8C803FD54C03754C1F12056A
:10029300DF7F898032D5380375380CAD387F06127D
:1002A30005E37F868021E53C153C7002153BE53C68
:1002B300B4FF0BE53BB4FF06753B00753C63AD3CF7
:0B02C3007F031205E37F831206E9228F
:10038B001204A3120003E53470F92000F6120003E7
:10039B007F811204F31206DA7536008F377F8312D2
:1003AB0004F31206DA753D008F3E7F851204F312BB
:1003BB0006DA754D008F4E7F871204F31206DA8F23
:1003CB004C7F891204F31206DA8F387F8B1204F3F9
:1003DB001206DA8F3A7F8D1204F31206DA753B00A0
:1003EB008F3C1205B1AD3E7F071205B5AD4E7F04B4
:1003FB001205B5AF3A1202CEAD3C7F031205E3AD49
:0C040B00387F061205E31205DF02038EA5
:03000000020417E0
:0C041700787FE4F6D8FD75815002045E89
:10065A00C2D530F707B2D563F0FF05F030E70CB228
:10066A00D5F4048463F0FF05F080018430D502F4E8
:02067A00042258
:1004230002038BE493A3F8E493A34003F68001F261
:1004330008DFF48029E493A3F85407240CC8C333DA
:10044300C4540F4420C8834004F456800146F6DFA9
:10045300E4800B0102040810204080900637E47EFC
:10046300019360BCA3FF543F30E509541FFEE4939E
:10047300A360010ECF54C025E060A840B8E493A365
:10048300FAE493A3F8E493A3C8C582C8CAC583CA90
:10049300F0A3C8C582C8CAC583CADFE9DEE780BE48
:0106590000A0
:00000001FF
