:1005EC00C2B500C2B600D2B500E4FEEF1392B4EF70
:1005FC00C313FFD2B600C2B6000EBE08EEE4FEED89
:10060C001392B4EDC313FDD2B600C2B6000EBE08F1
:04061C00EEC2B50075
:0106200022B7
:10052900C2B500C2B600D2B500E4FDEF1392B4EF34
:10053900C313FFD2B600C2B6000DBD08EE00E4FD3C
:10054900A2B4E433FFC43333335480FCEEC3134CF9
:10055900FED2B600C2B6000DBD08E5C2B500D2B6DE
:0905690000C2B400D2B400AF06D8
:010572002266
:1005B400E4FD7F8E1205ECE4FD7F801205EC7D30B6
:1005C4007F821205EC7D137F841205EC7D077F8604
:1005D4001205EC7D097F881205EC7D047F8A1205E3
:0805E400EC7D177F8C0205EC91
:10067D00C2A58F807F017E0012068ED2A77F057ED8
:01068D00006C
:10068E00D3EF9400EE9400400F7DC77C01DCFEDDBD
:08069E00FAEF1F70EB1E80E86B
:0106A6002231
:0A000300C2A7C2A612067DC2A72202
:0A074D00C2A7D2A612067DC2A722A1
:1006EC007F381200037F0C1200037F061200037F79
:0906FC00011200037F80020003DB
:1006A700112220323020202D20202D202020202014
:1006B7002020000D3C2020202020203A20203A2016
:0206C700200011
:040705007F057E00EE
:10070900D3EF9400EE9400400B7D6EDDFEEF1F7079
:04071900EF1E80EC63
:01071D0022B9
:10071E00E4FCC2A47F0A7E00120709D2A47F0A7EDF
:08072E00001207090CBC08EAE7
:0107360022A0
:04062100AD3B7F0767
:10062500ED75F00A1206CAF509ED75F00A1206CA4B
:1006350085F00AEF24C0FF120003E5092430FF12FC
:0A064500074DE50A2430FF02074DBF
:04064F00AD497F0929
:10065300ED75F00A1206CAF509ED75F00A1206CA1D
:1006630085F00AEF2480FF120003E5092430FF120E
:0A067300074DE50A2430FF02074D91
:100302008F097F8C120003E50914B4070040030231
:1003120003BE90032275F003A4C58325F0C5837341
:1003220002033702034402035902036D02038102EE
:1003320003950203A97F4D12074D1207057F4F0255
:1003420003B37F5412074D1207057F5512074D1252
:1003520007057F450203BB7F5712074D1207057F32
:100362004512074D1207057F44804E7F5412074DF8
:100372001207057F4812074D1207057F55803A7F05
:100382004612074D1207057F5212074D1207057FCD
:100392004980267F5312074D1207057F4112074DF0
:1003A2001207057F5480127F5312074D1207057FF3
:0D03B2005512074D1207057F4E12074D2210
:100737007F811205298F217F831205298F337F85BA
:060747001205298F352286
:1004CD00D2AFD2AAD28AC200E4F54BF54C753901F0
:1004DD00FD7F8E1205EC1205B41206ECE4F50974DD
:1004ED00222509F8E6FF12074D7F017E001207094C
:1004FD000509E509C3940F40E67FC0120003E4F53A
:10050D0009743C2509F8E6FF12074D7F017E0012A4
:0B051D0007090509E509C3940B40E63F
:0105280022B0
:1000160030012C30A00930A10630A20320A3201203
:10002600070530A00930A10630A20320A31130A095
:10003600FD30A1FA30A2F730A3F412071EC2013038
:10004600A0030200FB12070530A0030200FB054CCB
:10005600300008E54CB40403754C0175340130A03A
:10006600FD12071EE54C14B4080040030200FB9085
:10007600008375F003A4C58325F0C5837302009B36
:100086000200A40200A80200AC0200B00200B40202
:1000960000B80200BF7FCA1200037F0F80167FC719
:1000A60080127FC4800E7F8C800A7F8980067F86BF
:1000B60080027F83120003803CE4F54C7F0C120023
:1000C60003E4F534AD367F801205ECAD3B7F82123A
:1000D60005ECAD4A7F841205ECAD397F861205EC3E
:1000E600AD497F881205ECAD377F8A1205ECAD3A33
:1000F6007F8C1205ECE54C700302029030A10302DE
:1001060001CF12070530A1030201CF30A1FD12076E
:100116001EE54C14B4070040030201CF9001307570
:10012600F003A4C58325F0C5837302014502015A75
:1001360002016B0201800201930201A40201B905CA
:1001460036E536B43C03E4F536AD367F0A120625AD
:100156007FCA8072053BE53BB43C03E4F53B1206DF
:10016600217FC78061054AE54AB41803E4F54AAD24
:100176004A7F041206257FC4804C0539E539B40848
:1001860003753901AF391203027F8C80390549E5C1
:1001960049B4200375490112064F7F898028053727
:1001A600E537B40D03753701AD377F061206537F69
:1001B600868013053AE53AB46403E4F53AAD3A7F2E
:1001C600031206537F8312000330A2030202901229
:1001D600070530A20302029030A2FD12071EE54C6D
:1001E60014B4070040030202909001FD75F003A4C9
:1001F600C58325F0C5837302021202022702023864
:1002060002024D02025C02026902027A1536E536E6
:10021600B4FF0375363BAD367F0A1206257FCA80CA
:1002260066153BE53BB4FF03753B3B1206217FC7D2
:100236008055154AE54AB4FF03754A17AD4A7F044F
:100246001206257FC48040D53903753907AF3912A8
:1002560003027F8C8031D5490375491F12064F7FF3
:10026600898024D5370375370CAD377F06120653C0
:100276007F868013153AE53AB4FF03753A63AD3AC3
:100286007F031206537F8312000320A36E12070515
:1002960020A368B20030A3FD12071E20002CE4F54F
:1002A600347FC01200037F2012074D7F2012074DB6
:1002B6007F0C120003AD367F801205ECAD3B7F82CA
:1002C6001205ECAD4A7F840205EC1207378521360C
:1002D60085333B85354A7FC01200037F5212074D96
:1002E6007F6912074D7FC3120003AD4A7F041206D1
:0C02F60025120621AD4A7F0A12062522BF
:10044B001204CD12001630011412071E7F647E00B9
:10045B0012070912071E7FF47E01120709E534709B
:10046B00E22000DF1200167F811205298F367F8371
:10047B001205298F3B7F851205298F4A7F8712052D
:10048B00298F497F891205298F377F8B1205298F79
:10049B00397F8D1205298F3AAD367F0A1206251248
:1004AB000621AD4A7F04120625AF39120302AD3A7D
:1004BB007F03120653AD377F0612065312064F0207
:0204CB00044EDD
:0300130002057370
:10057300C0E0C0F0C083C082C0D075D000C000C04E
:0D05830001C002C003C004C005C006C007CF
:09059000D2017F0C1205298F082D
:10059900D007D006D005D004D003D002D001D000B6
:0B05A900D0D0D082D083D0F0D0E03260
:030000000203BF39
:0C03BF00787FE4F6D8FD75814C0204063E
:1006CA00C2D530F707B2D563F0FF05F030E70CB2B8
:1006DA00D5F4048463F0FF05F080018430D502F478
:0206EA000422E8
:1003CB0002044BE493A3F8E493A34003F68001F2F9
:1003DB0008DFF48029E493A3F85407240CC8C33333
:1003EB00C4540F4420C8834004F456800146F6DF02
:1003FB00E4800B01020408102040809006A7E47EE5
:10040B00019360BCA3FF543F30E509541FFEE493F6
:10041B00A360010ECF54C025E060A840B8E493A3BD
:10042B00FAE493A3F8E493A3C8C582C8CAC583CAE8
:10043B00F0A3C8C582C8CAC583CADFE9DEE780BEA0
:0106C9000030
:00000001FF
