:10057E00C2B500C2B600D2B500E4FEEF1392B4EFDE
:10058E00C313FFD2B600C2B6000EBE08EEE4FEEDF7
:10059E001392B4EDC313FDD2B600C2B6000EBE0860
:0405AE00EEC2B500E4
:0105B2002226
:1004F500C2B500C2B600D2B500E4FDEF1392B4EF69
:10050500C313FFD2B600C2B6000DBD08EE00E4FD70
:10051500A2B4E433FFC43333335480FCEEC3134C2D
:10052500FED2B600C2B6000DBD08E5C2B500D2B612
:0905350000C2B400D2B400AF060C
:01053E00229A
:10053F00E4FD7F8E12057EE4FD7F8012057E7D3007
:10054F007F8212057E7D137F8412057E7D077F8655
:10055F0012057E7D097F8812057E7D047F8A120534
:0F056F007E7D177F8C12057E7D807F8E02057E3C
:1005B300C2A58F807F017E001205C4D2A77F057E6E
:0105C3000037
:1005C400D3EF9400EE9400400F7DC77C01DCFEDD88
:0805D400FAEF1F70EB1E80E836
:0105DC0022FC
:0A072000C2A7C2A61205B3C2A722A9
:0A072A00C2A7D2A61205B3C2A7228F
:1006C0007F381207207F0C1207207F061207207F39
:0906D000011207207F80020720BF
:10067B00112220323020202D20202D202020202040
:10068B002020000D3F2020202020203A20203A203F
:02069B0020003D
:0406D9007F057E001B
:1006DD00D3EF9400EE9400400B7D6EDDFEEF1F70A6
:0406ED00EF1E80EC90
:0106F10022E6
:1006F200E4FCC2A47F0A7E001206DDD2A47F0A7E39
:08070200001206DD0CBC08EA40
:01070A0022CC
:1005DD00ED75F00A12069EF508ED75F00A12069EED
:1005ED0085F009EF24C0FF120720E5082430FF1223
:0A05FD00072AE5092430FF02072A4F
:10063100ED75F01012069EF508ED540FF509EF2443
:10064100C0FF120720E5082430FF12072AE509241C
:0506510030FF02072A42
:10060700ED75F00A12069EF508ED75F00A12069EC2
:1006170085F009EF2480FF120720E5082430FF1238
:0A062700072AE5092430FF02072A24
:10065600ED75F01012069EF508ED540FF509EF241E
:1006660080FF120720E5082430FF12072AE5092437
:0506760030FF02072A1D
:1002DE008F087F8C120720E50814B4070040030234
:1002EE00039A9002FE75F003A4C58325F0C58373AF
:1002FE0002031302032002033502034902035D02C7
:10030E0003710203857F4D12072A1206D97F4F0211
:10031E00038F7F5412072A1206D97F5512072A120D
:10032E0006D97F450203977F5712072A1206D97FF7
:10033E004512072A1206D97F44804E7F5412072A8F
:10034E001206D97F4812072A1206D97F55803A7FA6
:10035E004612072A1206D97F5212072A1206D97F91
:10036E004980267F5312072A1206D97F4112072A87
:10037E001206D97F5480127F5312072A1206D97F94
:0D038E005512072A1206D97F4E12072A22A7
:10070B00EF75F00A8433333354F8FEEF75F00A8437
:05071B00E5F04EFF2295
:1004A500C200E4F54FF550753A0112053F1206C03A
:1004B500E4F50874222508F8E6FF12072A7F017E75
:1004C500001206DD0508E508C3940F40E67FC0125B
:1004D5000720E4F508743F2508F8E6FF12072A7F90
:0F04E500017E001206DD0508E508C3940B40E612
:0104F40022E5
:1000030030A0030200DE1206D930A0030200DE0591
:100013005075340130A0FD1206F2E55014B4080007
:1000230040030200DE90003675F003A4C58325F07B
:10003300C5837302004E02005702005B02005F0299
:10004300006302006702006B0200727FCA1207207E
:100053007F0F80167FC780127FC4800E7F8C800A3B
:100063007F8980067F8680027F83120720806CE46D
:10007300F5507F0C120720E4F534FD7F8E12057EC8
:10008300AF3712070BAD077F8012057EAF3E120715
:100093000BAD077F8212057EAF4E12070BAD077FB4
:1000A3008412057EAF4C12070BAD077F8612057EC7
:1000B300AF3812070BAD077F8812057EAF3A1207E0
:1000C3000BAD077F8A12057EAF3C12070BAD077F8E
:1000D3008C12057E7D807F8E12057EE550700302B3
:1000E30002DD30A1030201DB1206D930A1030201B4
:1000F300DB30A1FD1206F2E55014B4070040030201
:1001030001DB90011375F003A4C58325F0C5837348
:1001130002012802014602016302018002019302E7
:1001230001A80201BD0537E53770020536643C4579
:10013300367004F536F537AD377F0A1205DD7FCA11
:100143000201D8053EE53E7002053D643C453D7025
:1001530004F53DF53EAD3E7F071205DD7FC7807593
:10016300054EE54E7002054D6418454D7004F54D7E
:10017300F54EAD4E7F041205DD7FC48058053AE588
:100183003AB40803753A01AF3A1202DE7F8C804518
:10019300054CE54CB42003754C01AD4C7F091206A8
:1001A300077F8980300538E538B40D03753801AD14
:1001B300387F061206077F86801B053CE53C7002EC
:1001C300053B6464453B7004F53BF53CAD3C7F0364
:1001D3001206077F8312072030A2030202DD1206F4
:1001E300D930A2030202DD30A2FD1206F2E550145B
:1001F300B4070040030202DD90020975F003A4C5B1
:100203008325F0C5837302021E02024202026502C5
:1002130002880202970202A80202B9E53715377075
:10022300021536E537B4FF0BE536B4FF0675360025
:1002330075373BAD377F0A1205DD7FCA0202DAE567
:100243003E153E7002153DE53EB4FF0BE53DB4FFA0
:1002530006753D00753E3BAD3E7F071205DD7FC74A
:100263008075E54E154E7002154DE54EB4FF0BE556
:100273004DB4FF06754D00754E17AD4E7F04120544
:10028300DD7FC48052D53A03753A07AF3A1202DED6
:100293007F8C8043D54C03754C1FAD4C7F091206F0
:1002A300077F898032D5380375380CAD387F061245
:1002B30006077F868021E53C153C7002153BE53C33
:1002C300B4FF0BE53BB4FF06753B00753C63AD3CE7
:0B02D3007F031206077F831207202222
:100427001204A5120003E53470F92000F612000348
:100437007F811204F57536008F377F831204F575B7
:100447003D008F3E7F851204F5754D008F4E7F87E7
:100457001204F58F4C7F891204F58F387F8B1204B5
:10046700F58F3A7F8D1204F5753B008F3CAD377FD2
:100477000A120631AD3E7F07120631AD4E7F0412D8
:100487000631AF3A1202DEAD3C7F03120656AD3895
:0E0497007F06120656AD4C7F09120656808570
:0300000002039B5D
:0C039B00787FE4F6D8FD7581500203E283
:10069E00C2D530F707B2D563F0FF05F030E70CB2E4
:1006AE00D5F4048463F0FF05F080018430D502F4A4
:0206BE00042214
:1003A700020427E493A3F8E493A34003F68001F241
:1003B70008DFF48029E493A3F85407240CC8C33357
:1003C700C4540F4420C8834004F456800146F6DF26
:1003D700E4800B010204081020408090067BE47E35
:1003E700019360BCA3FF543F30E509541FFEE4931B
:1003F700A360010ECF54C025E060A840B8E493A3E2
:10040700FAE493A3F8E493A3C8C582C8CAC583CA0C
:10041700F0A3C8C582C8CAC583CADFE9DEE780BEC4
:01069D00005C
:00000001FF
