:030000000204C433
:0C04C400787FE4F6D8FD75812002050B5E
:10069F0053554E4D4F4E5455455745445448554666
:0506AF005249534154C3
:0606F700C10002083CB046
:0506FE00120703D2A168
:0107030022D3
:0A06D900D2A01206FEC2A002070321
:0A06E300C2A01206FED2A002070317
:0805EF001206D97FA012062EAE
:1005F700D2A112070330A00BE514C394FA500405E7
:080607001480F2C2A1020703F6
:0A06ED00D2A0120703D2A1020703F6
:10062E00E4FEEF25E0FFC2A112070392A01206FE20
:0E063E000EBE08EEC2A1120703D2A0020703EF
:1005CA00C2A1120703D2A0120703E4FED2A11207A6
:1005DA0003EF25E0FDA2A0E4334DFFC2A1120703F9
:0405EA000EBE08E851
:0105EE0022EA
:10057C00AD0C7F0A1206507FCA1206BDAD0C7F016E
:10058C00AC071205EFAF0412062E1205F7AF0512D9
:08059C00062E1205F70206E32A
:02060F00AD0735
:100611001205EFAF0512062E1205F71206D97FA1BA
:0C06210012062E1205F71205CA1206E39D
:01062D0022AA
:1005A400C2A78F807F057E001205B5D2A77F057E86
:0105B4000046
:1005B500D3EF9400EE9400400B7D6EDDFEEF1F70CF
:0405C500EF1E80ECB9
:0105C900220F
:100688007C08C2907F0A7E001205B5D2907F0A7E50
:06069800001205B5DCECC8
:01069E002239
:0906B400AD0F7F041206507FC453
:0A06BD00C2A5C2A61205A4C2A7221E
:0806C700FF1206BDEC2430FF18
:0A06CF00C2A5D2A61205A4C2A722FC
:04064C00AD0E7F0769
:10065000ED75F00A84FCED75F00A84ABF0EF24C070
:0A0660001206C7EB2430FF0206CF9C
:04066A00AD0B7F0451
:10066E00ED75F00A84FCED75F00A84ABF0EF248092
:0A067E001206C7EB2430FF0206CF7E
:02055000AC07F6
:100552007F8D1206BDE4FBEC75F003A4249FF582A7
:10056200E43406F583E5822BF582E43583F583E4F2
:0905720093FF1206CF0BBB03DE60
:01057B00225D
:1003FA00C2A7E4F50FF50EF50CF50DF5121206ED90
:10040A007F381206BD7F0C1206BD7F061206BD7F1D
:10041A00011206BD7F821206BD7F321206CF7F30DF
:10042A001206CF7F861206BD7F2D1206CF7F891254
:10043A0006BD7F2D1206CF7FC61206BD7F3A120671
:10044A00CF1205B17FC91206BD7F3A1206CF120537
:10045A00B17F0412060F8F0B7F0512060F8F107FD4
:10046A000612060F8F117F0712060F8F0A7F0112DD
:10047A00060F8F0C7F0212060F8F0E7F0312060FD4
:10048A008F0F12066AAD107F0712066EAD117F0A32
:10049A0012066EAF0A120550AD0C7F0A12065012F0
:1004AA00064CAD0F7F04120650758901E508F58CDC
:0A04BA0085098AD2AFD2A9D28C22A4
:10000E0020A36A1205B120A364051230A3FD1206C7
:10001E0088E512B4010CC28C7FCA1206BD7F0F1286
:10002E0006BDE512B402057FC71206BDE512B40384
:10003E00057FC41206BDE512B404057F8A1206BD03
:10004E00E512B405057F871206BDE512B406057FDD
:10005E00841206BDE512B407057F8D1206BDE512AA
:10006E00B4080AE4F5127F0C1206BDD28CE51270AC
:10007E000302024830A4030201751205B130A40335
:10008E0002017530A4FD120688E512B40111050CAB
:10009E00C3E50C648094BC4003E4F50C12057CE5CA
:1000AE0012B4021D050EC3E50E648094BC4003E439
:1000BE00F50E12064C7FC71206BDAD0E7F0212055D
:1000CE008CE512B40318050FC3E50F6480949840B5
:1000DE0003E4F50F1206B4AD0F7F0312058CE51283
:1000EE00B4041D0511E511B42003751101AD117F86
:1000FE000A12066E7F8A1206BDAD117F0612058C9E
:10010E00E512B405210510C3E5106480948D4003FB
:10011E00751001AD107F0712066E7F871206BDADFA
:10012E00107F0512058CE512B4061D050BC3E50BF9
:10013E00648094E44003E4F50B12066A7F84120691
:10014E00BDAD0B7F0412058CE512B4071A050AC368
:10015E00E50A648094874003E4F50AAF0A1205505D
:10016E00AD0A7F0712058C30A2030202481205B1B8
:10017E0030A20302024830A2FD120688E512B40135
:10018E000D150CE50CB4FF03750C3B12057CE51246
:10019E00B40219150EE50EB4FF03750E3B12064C94
:1001AE007FC71206BDAD0E7F0212058CE512B40399
:1001BE0014150FE50FB4FF03750F171206B4AD0F2C
:1001CE007F0312058CE512B40419D5110375111FA6
:1001DE00AD117F0A12066E7F8A1206BDAD117F0623
:1001EE0012058CE512B40519D5100375100CAD105F
:1001FE007F0712066E7F871206BDAD107F051205B2
:10020E008CE512B40619150BE50BB4FF03750B63E1
:10021E0012066A7F841206BDAD0B7F0412058CE5B3
:10022E0012B40716150AE50AB4FF03750A06AF0ADB
:0B023E00120550AD0A7F0712058C224C
:080003001203FA12000E80FB4B
:03000B00020249A5
:10024900C0E0C0F0C083C082C0D075D000C003C078
:1002590004C005C006C007E508F58C85098A050DA7
:10026900E50D641460030203E5F50D050CE50C6466
:100279003C60030203DBF50C050EE50E643C6003EC
:100289000203D1F50E050FE50F641860030203C3DD
:10029900F50F0511050AC3E50A64809487400375C3
:1002A9000A00E51014B40C0040030203A99002C42B
:1002B90075F003A4C58325F0C583730202E8020221
:1002C900F602030402031202032002032E02033979
:1002D90002034402034F02035A020365020375C372
:1002E900E511648094A050030203A98078C3E51145
:1002F9006480949D50030203A9806AC3E511648058
:1003090094A050030203A9805CC3E5116480949F03
:1003190050030203A9804EC3E511648094A05003E1
:100329000203A98040C3E5116480949F407280351F
:10033900C3E511648094A04067802AC3E5116480F5
:1003490094A0405C801FC3E5116480949F40518054
:1003590014C3E511648094A040468009C3E5116483
:1003690080949F403B75110105108026C3E51164F7
:100379008094A0402B751101751001050BE50B64E4
:100389008094E34003750B0012066AAD0B7F0412DB
:10039900058CAD107F0712066EAD107F0512058C16
:1003A900AD117F0A12066EAD117F0612058CAF0AD8
:1003B900120550AD0A7F0712058CAD0F7F04120696
:1003C90050AD0F7F0312058C12064CAD0E7F021241
:1003D900058CAD0C7F0A120650120588D007D0068D
:1003E900D005D004D003D0D0D082D083D0F0D0E0D3
:0103F90032D1
:1004D000020003E493A3F8E493A34003F68001F23F
:1004E00008DFF48029E493A3F85407240CC8C3332D
:1004F000C4540F4420C8834004F456800146F6DFFC
:10050000E4800B01020408102040809006F7E47E8E
:10051000019360BCA3FF543F30E509541FFEE493F0
:10052000A360010ECF54C025E060A840B8E493A3B7
:10053000FAE493A3F8E493A3C8C582C8CAC583CAE2
:10054000F0A3C8C582C8CAC583CADFE9DEE780BE9A
:0106FD0000FC
:00000001FF
