:10032800FEFDFBF7EFDFBF7F3F065B4F666D7D0786
:020338007F6FD5
:0A033A0008080000000000000000A9
:0402EA007F017E0012
:1002EE00D3EF9400EE940040147D647C00ED1D70FD
:0D02FE00011CED4C70F7EF1F70E61E80E351
:01030B0022CF
:10000300E4FB20A02F7F0AFE1202EE20A02620A0F0
:1000130020EB90032893F58074082BF8E6900330C7
:1000230093F5900BEBD394074002E4FB1202EA80B2
:10003300DD7F312220A1367F0A7E001202EE20A14D
:100043002CE4F58075903F20A120EB90032893F5D5
:100053008074082BF8E690033093F5900BEBD39460
:10006300074002E4FB1202EA80DD7F322220A2363F
:100073007F0A7E001202EE20A22CE4F58075903FE9
:1000830020A220EB90032893F58074082BF8E690C8
:10009300033093F5900BEBD394074002E4FB120279
:1000A300EA80DD7F332220A3367F0A7E001202EE30
:1000B30020A32CE4F58075903F20A320EB90032828
:1000C30093F58074082BF8E690033093F5900BEBCF
:1000D300D394074002E4FB1202EA80DD7F3422203E
:1000E300A4367F0A7E001202EE20A42CE4F580756C
:1000F300903F20A420EB90032893F58074082BF8FD
:10010300E690033093F5900BEBD394074002E4FBA6
:100113001202EA80DD7F352220A5367F0A7E001297
:1001230002EE20A52CE4F58075903F20A520EB90EE
:10013300032893F58074082BF8E690033093F59029
:100143000BEBD394074002E4FB1202EA80DD7F3617
:100153002220A6367F0A7E001202EE20A62CE4F5AA
:100163008075903F20A620EB90032893F5807408B8
:100173002BF8E690033093F5900BEBD394074002F2
:10018300E4FB1202EA80DD7F372220A7357F0A7E57
:10019300001202EE20A72BE4F58075903F20A720E4
:1001A300EB90032893F58074082BF8E690033093C3
:1001B300F5900BEBD394074002E4FB1202EA80DDD7
:0201C3007F3883
:0101C5002217
:10030C00E4FBEB90032893F58074082BF8E690033C
:0B031C003093F5901202EA0BBB08E7DB
:0103270022B3
:1001C600120003EF24CFB408004003020258900146
:1001D600E275F003A4C58325F0C583730201FA0214
:1001E600020602021202021E02022A02023602025D
:1001F6004202024E0508E508640A7056F508805268
:100206000509E509640A704AF5098046050AE50A02
:10021600640A703EF50A803A050BE50B640A7032F3
:10022600F50B802E050CE50C640A7026F50C802271
:10023600050DE50DB40A1BE4F50D8016050EE50E59
:10024600B40A0FE4F50E800A050FE50FB40A03E4BD
:08025600F50F12030C0201C6B2
:0300000002025E9B
:0C025E00787FE4F6D8FD75810F0202A540
:10026A000201C6E493A3F8E493A34003F68001F2E3
:10027A0008DFF48029E493A3F85407240CC8C33395
:10028A00C4540F4420C8834004F456800146F6DF64
:10029A00E4800B010204081020408090033AE47EB7
:1002AA00019360BCA3FF543F30E509541FFEE49359
:1002BA00A360010ECF54C025E060A840B8E493A320
:1002CA00FAE493A3F8E493A3C8C582C8CAC583CA4B
:1002DA00F0A3C8C582C8CAC583CADFE9DEE780BE03
:0103440000B8
:00000001FF
