:1008F50010083F065B4F666D7D077F6F777C395E1D
:02090500797106
:0E091A0012088C74082518F8E6F4F58080F2B7
:10088C0075900FE590640F605F7F01120908E59089
:10089C00640F6054AF90EF24F5601024FE601114C7
:1008AC0060132407701275180C800D7518088008D9
:1008BC007518048003E4F5187590F0AF90EF245090
:1008CC00601424E0601624F0601624707015740314
:1008DC002518F518800D05180518800705188003D4
:0908EC00851818E590B4F0FB2218
:10090800EFD3940040031F80F77F26DFFE7F82DF4E
:01091800FEE0
:0109190022BB
:03000000020800F3
:0C080000787FE4F6D8FD758118020847E7
:10080C0002091AE493A3F8E493A34003F68001F2DF
:10081C0008DFF48029E493A3F85407240CC8C333ED
:10082C00C4540F4420C8834004F456800146F6DFBC
:10083C00E4800B01020408102040809008F5E47E4F
:10084C00019360BCA3FF543F30E509541FFEE493B1
:10085C00A360010ECF54C025E060A840B8E493A378
:10086C00FAE493A3F8E493A3C8C582C8CAC583CAA3
:10087C00F0A3C8C582C8CAC583CADFE9DEE780BE5B
:0109070000EF
:00000001FF
