:10007200D3EF9400EE9400400B7D7DDDFEEF1F7008
:04008200EF1E80EC01
:010086002257
:0F00870075890175A882758CFE758A33D28C221B
:10000E0020901C7F0A7E00120072209012E4F508E8
:10001E000509E509C3940640037509053090FD20D6
:10002E0091167F0A7E0012007220910CE4F508D51D
:09003E0009037509013091FD224E
:0E009600750904E4F50812008712000E80FBC5
:03000B00020047A9
:10004700C0E0C0F0C0D0758CFE758A33E508C39553
:10005700095004D2818002C2810508E50875F0289D
:0B0067008485F008D0D0D0F0D0E0324B
:030000000200A457
:0C00A400787FE4F6D8FD75810902009613
:00000001FF
