:0A00B800C0F9A4B0999282F880907C
:10008800D3EF9400EE9400400B7D7DDDFEEF1F70F2
:04009800EF1E80ECEB
:01009C002241
:0F009D0075890175A882758CFE758A33D28C2205
:10000E0020961C7F0A7E001200882096123096FDE4
:10001E00E4F5080509E509C39406400375090520B2
:10002E0097167F0A7E0012008820970C3097FDE409
:09003E00F508D50903750901223A
:10007200750901E4F50812009D12000EE5099000D1
:06008200B893F58080F345
:03000B00020047A9
:10004700C0E0C0F0C0D0758CFE758A33E508C39553
:10005700095004D2B08002C2B00508E50875F0283F
:0B0067008485F008D0D0D0F0D0E0324B
:030000000200AC4F
:0C00AC00787FE4F6D8FD7581090200722F
:00000001FF
