:0B0115003F065B4F666D7D077F6F406B
:1000EB00D3EF9400EE9400400B7D64DDFEEF1F70A8
:0400FB00EF1E80EC88
:0100FF0022DE
:10001E00C2B0758916758CFF758AFF758DFE758B4E
:10002E0033D2A9D2ABD2AFD28CD28EE4F50AF50B75
:10003E00F50CF50DF50EF50FE51275F00A8490012D
:10004E001593F510E51275F00A84E5F093F511E4B9
:10005E00FCECB40800504D90006CF8282873020098
:10006E008402008802009002009402009C0200A00C
:10007E000200A80200ACC2A28002D2A2C2A3C2A4F5
:10008E008022C2A28002D2A2D2A3C2A48016C2A291
:10009E008002D2A2C2A3D2A4800AC2A28002D2A29D
:1000AE00D2A3D2A4740A2CF8E6F5807F057E001246
:0B00BE0000EB0CEC64087099020039A4
:03000B00020100EF
:10010000C0E0C0D00512E512C3946440037512002C
:05011000D0D0D0E03268
:03001B000200C917
:1000C900C0E0C0D00509E50970020508C39405E53B
:1000D9000894004008750800750900B2B0D0D0D066
:0200E900E03203
:0300000002000EED
:0C000E00787FE4F6D8FD75811202001E18
:00000001FF
