:0B0178003F065B4F666D7D077F6F4008
:0A016D000808000000000000000078
:10014F00D3EF9400EE940040147D6E7C00ED1D7093
:0D015F00011CED4C70F7EF1F70E61E80E3F1
:01016C002270
:1000A200E4FB74082BF8E690017893F580EBB40832
:1000B20000504D9000BCF82828730200D40200D8EA
:1000C2000200E00200E40200EC0200F00200F8028A
:1000D20000FCC2A28002D2A2C2A3C2A48022C2A2F7
:1000E2008002D2A2D2A3C2A48016C2A28002D2A24D
:1000F200C2A3D2A4800AC2A28002D2A2D2A3D2A454
:0D0102007F017E0012014F0BEB6408709529
:01010F0022CD
:10011000758901758C3C758AB0D2AFD2A9D2A8D2AC
:10012000AAD28CE510C394144020E4F5100511E523
:1001300011B40605C2A9758702E51175F00A84F5A8
:0F0140000EE51175F00A8485F00F1200A280D42D
:03000B000201836C
:09018300758C3C758AB005103240
:0300030002018C6B
:06018C00758700D2A932C4
:0300130002019255
:06019200758700D2A932BE
:03000000020016E5
:0C001600787FE4F6D8FD75811102005DD2
:10002200020110E493A3F8E493A34003F68001F2E3
:1000320008DFF48029E493A3F85407240CC8C333DF
:10004200C4540F4420C8834004F456800146F6DFAE
:10005200E4800B010204081020408090016DE47ED0
:10006200019360BCA3FF543F30E509541FFEE493A3
:10007200A360010ECF54C025E060A840B8E493A36A
:10008200FAE493A3F8E493A3C8C582C8CAC583CA95
:10009200F0A3C8C582C8CAC583CADFE9DEE780BE4D
:010177000087
:00000001FF
