:10019A00C0F9A4B0999282F880908883C6A1868E0D
:040178007F0A7E007C
:10017C00D3EF9400EE940040147D6E7C00ED1D7066
:0D018C00011CED4C70F7EF1F70E61E80E3C4
:010199002243
:1000030075B07F85B00853080FE508640F604E1282
:10001300017885B00853080FE508640F603F85B089
:1000230008E5082485601024FE601114601324077A
:10003300701275090F800D75090B8008750907800B
:1000430003750903E508640F601085B00853080FB2
:10005300E50990019A93F58080EA7580FF75B0BF3A
:1000630085B00853080FE508640F604E12017885C8
:10007300B00853080FE508640F603F85B008E50832
:100083002445601024FE6011146013240770127558
:10009300090E800D75090A80087509068003750924
:1000A30002E508640F601085B00853080FE5099056
:1000B300019A93F58080EA7580FF75B0DF85B008FB
:1000C30053080FE508640F604E12017885B008539A
:1000D300080FE508640F603F85B008E50824256034
:1000E3001024FE60111460132407701275090D802B
:1000F3000D75090980087509058003750901E5086F
:10010300640F601085B00853080FE50990019A93B6
:10011300F58080EA7580FF75B0EF85B00853080F4E
:10012300E508640F604E12017885B00853080FE5A7
:1001330008640F603F85B008E5082415601024FEAD
:1001430060111460132407701275090C800D750972
:100153000880087509048003E4F509E508640F6065
:100163001085B00853080FE50990019A93F5808034
:04017300EA7580FFAA
:010177002265
:0801B6007580FF12000380FBBD
:030000000201AA50
:0C01AA00787FE4F6D8FD7581090201B6EB
:00000001FF
