:10080000E4F508120851EF2481603E24C0603524CD
:10081000E0602C24F0602324F8601A24FC6011248A
:10082000FE60081470267508018021750802801C7E
:1008300075080480177508088012750810800D75FA
:10084000082080087508408003750880850880802E
:01085000B2F5
:10085100E4F509E590F460147F017E00120870E56B
:0E08610090F46008859009E590B4FFFBAF09A4
:01086F002266
:10087000D3EF9400EE9400400F7D267C82DCFEDDF9
:08088000FAEF1F70EB1E80E887
:01088800224D
:030000000208896A
:0C088900787FE4F6D8FD758109020800B4
:00000001FF
