:03000000020117E3
:0C011700787FE4F6D8FD75812002015EBF
:1003C0002020323031372D30382D323220545545EF
:0103D000002C
:0203FD00C1003D
:0503F7001203FCD2A17D
:0103FC0022DE
:0A03D100D2A01203F7C2A00203FC41
:0A03DB00C2A01203F7D2A00203FC37
:08033B001203D17FA012037A26
:10034300D2A11203FC30A00BE50EC394FA500405AE
:080353000E80F2C2A10203FCBE
:0A03E500D2A01203FCD2A10203FC17
:10037A00E4FEEF25E0FFC2A11203FC92A01203F7EC
:0E038A000EBE08EEC2A11203FCD2A00203FCBC
:10031600C2A11203FCD2A01203FCE4FED2A1120376
:10032600FCEF25E0FDA2A0E4334DFFC2A11203FCC1
:040336000EBE08E807
:01033A0022A0
:1002A200AD087F0A1202F47FCA1203B8AD087F01BB
:1002B200AC0712033BAF0412037A120343AF0512D9
:0802C200037A1203430203DB7F
:02035B00AD07EC
:10035D0012033BAF0512037A1203431203D17FA19F
:0C036D0012037A1203431203161203DB82
:010379002261
:1002CA00C2A78F807F057E001202DBD2A77F057E40
:0102DA000023
:1002DB00D3EF9400EE9400400B7D6EDDFEEF1F70AC
:0402EB00EF1E80EC96
:0102EF0022EC
:100398007C08C2B07F0A7E001202DBD2B07F0A7EE0
:0603A800001202DBDCEC98
:0103AE00222C
:0903AF00AD0B7F041202F47FC4BF
:0803B800C2A61202CAC2A7226C
:08000300D2A61202CAC2A72214
:0402F000AD0A7F07CD
:1002F400ED75F00A84FCED75F00A84ABF0EF24C0D0
:10030400FF1203B8EC2430FF120003EB2430FF0289
:020314000003E4
:1001A300C2A7E4F50BF50AF508F509F50C1203E50A
:1001B3007F381203B87F0C1203B87F061203B87F8F
:1001C300011203B87F801203B8E4FCEC9003C093E0
:1001D300FF1200031202D70CBC0FF07FC61203B844
:1001E3007F3A1200031202D77FC91203B87F3A1273
:1001F30000031202D77F0112035B8F087F021203F1
:100203005B8F0A7F0312035B8F0BAD087F0A120219
:10021300F41202F0AD0B7F041202F4758901758CA0
:0A0223003C758AB0D2AFD2A9D28C8C
:01022D0022AE
:10000E0020A3421202D720A33C050C30A3FD1203FD
:10001E0098E50CB4010CC28C7FCA1203B87F0F1284
:10002E0003B8E50CB402057FC71203B8E50CB403A0
:10003E00057FC41203B8E50CB4040AE4F50C7F0C7A
:10004E001203B8D28CE50C700302011620A46112C3
:10005E0002D720A45B30A4FD120398E50CB4011165
:10006E000508C3E508648094BC4003E4F508120259
:10007E00A2E50CB4021D050AC3E50A648094BC40D7
:10008E0003E4F50A1202F07FC71203B8AD0A7F022D
:10009E001202B2E50CB40318050BC3E50B64809491
:1000AE00984003E4F50B1203AFAD0B7F031202B2BF
:1000BE0020A5551202D720A54F30A5FD120398E5B5
:1000CE000CB4010D1508E508B4FF0375083B1202C8
:1000DE00A2E50CB40219150AE50AB4FF0375083B34
:1000EE001202F07FC71203B8AD0A7F021202B2E508
:1000FE000CB40314150BE50BB4FF03750B171203A9
:09010E00AFAD0B7F031202B22217
:0803EF001201A312000E80FBB5
:03000B0002022EC0
:10022E00C0E0C0F0C0D075D000C003C004C005C08F
:10023E0006C007758C3C758AB00509E50964147013
:10024E0042F5090508E508643C702EF508050AE537
:10025E000AB43C1B750A00050BE50BB41803750BAD
:10026E0000AD0B7F041202F4AD0B7F031202B2122B
:10027E0002F0AD0A7F021202B2AD087F0A1202F43A
:10028E001202AED007D006D005D004D003D0D0D005
:04029E00F0D0E0328A
:100123000203EFE493A3F8E493A34003F68001F200
:1001330008DFF48029E493A3F85407240CC8C333DD
:10014300C4540F4420C8834004F456800146F6DFAC
:10015300E4800B01020408102040809003FDE47E3C
:10016300019360BCA3FF543F30E509541FFEE493A1
:10017300A360010ECF54C025E060A840B8E493A368
:10018300FAE493A3F8E493A3C8C582C8CAC583CA93
:10019300F0A3C8C582C8CAC583CADFE9DEE780BE4B
:0103FF0000FD
:00000001FF
