:1000920048656C6C6F2065766572796F6E652100BC
:1000A20057656C636F6D6520746F2068657265219A
:0100B200004D
:10006300C2A58F807F057E00120074D2A77F057E14
:01007300008C
:10007400D3EF9400EE940040147D6E7C00ED1D706F
:0D008400011CED4C70F7EF1F70E61E80E3CD
:01009100224C
:0800D500C2A6120063C2A722BB
:0800DD00D2A6120063C2A722A3
:1000B300C2A77F381200D57F0C1200D57F0612002D
:0600C300D57F010200D50B
:100003001200B37F901200D5E4F508E50890009242
:1000130093FF1200DD1200700508E508C3940F403A
:10002300EA7FD01200D5E4F508E5089000A293FF1B
:100033001200DD1200700508E508C3941040EA7F42
:10004300E87E03120074E4F5087F181200D57FC818
:100053007E001200740508E508C3941040EB80FE8F
:030000000200C932
:0C00C900787FE4F6D8FD75810802000382
:00000001FF
