:03000000020951A1
:0C095100787FE4F6D8FD7581190208F6E5
:10093F000000000100020004000800100020004029
:02094F00008026
:10092A00D3EF9400EE9400400B7D64DDFEEF1F7060
:04093A00EF1E80EC40
:01093E002296
:1008F60078087C007D007BFF7A09793F7E007F12B5
:100906001208D0E4FBFAEB25E02408F808E6F580A7
:100916007FE87E0312092A0BBB00010AEB64094A31
:0409260070E480DF1A
:10080000E709F608DFFA8046E709F208DFFA803EDA
:1008100088828C83E709F0A3DFFA8032E309F608C7
:10082000DFFA8078E309F208DFFA807088828C832F
:10083000E309F0A3DFFA806489828A83E0A3F608E3
:10084000DFFA805889828A83E0A3F208DFFA804CBD
:1008500080D280FA80C680D4806980F28033801094
:1008600080A680EA809A80A880DA80E280CA8033FD
:1008700089828A83ECFAE493A3C8C582C8CCC58375
:10088000CCF0A3C8C582C8CCC583CCDFE9DEE78045
:100890000D89828A83E493A3F608DFF9ECFAA9F0C4
:1008A000EDFB2289828A83ECFAE0A3C8C582C8CC1A
:1008B000C583CCF0A3C8C582C8CCC583CCDFEADE33
:1008C000E880DB89828A83E493A3F208DFF980CC95
:1008D00088F0EF60010E4E60C388F0ED2402B4048E
:1008E0000050B9F582EB2402B4040050AF23234535
:0608F00082239008507302
:00000001FF
