:0A0200003F065B4F666D7D077F6FC0
:02020A00C10031
:05000300120008D2A16B
:0100080022D5
:10017000D3EF9400EE940040147D6E7C00ED1D7072
:0D018000011CED4C70F7EF1F70E61E80E3D0
:01018D00224F
:0A01E200D2A0120003C2A002000820
:0A01EC00C2A0120003D2A002000816
:080131001201E27FA012018E11
:10013900D2A112000830A00BE50CC394FA500405B3
:080149000C80F2C2A1020008C3
:0A01F600D2A0120008D2A1020008F6
:10018E00E4FEEF25E0FFC2A112000892A0120003C8
:0E019E000EBE08EEC2A1120008D2A002000898
:10010C00C2A1120008D2A0120008E4FED2A1120073
:10011C0008EF25E0FDA2A0E4334DFFC2A1120008B8
:04012C000EBE08E813
:0101300022AC
:1001CA00AC07120131AF0412018E120139AF0512C8
:0801DA00018E1201390201EC53
:02015100AD07F8
:10015300120131AF0512018E1201391201E27FA1A2
:0C01630012018E12013912010C1201EC85
:01016F00226D
:1001AC00E4F580C2A2D2A3D2A4EF90020093F58012
:0E01BC00E4F580D2A2D2A3D2A4ED93F5802266
:1000D4001201F67F021201518F0BE50BD394644099
:1000E40003E4F50B758901D2A9D2AF758C3C758AEE
:1000F400B0D28CAD09AF081201AC3000F6C200AD2D
:080104000B7F021201CA80EB1F
:03000B0002009A56
:10009A00C0E0C0F0C0D0758C3C758AB0050AE50A8C
:1000AA00B41420750A00050BD200E50BB46403757D
:1000BA000B00E50B75F00A84F508E50B75F00A8468
:0A00CA0085F009D0D0D0F0D0E0326C
:0300000002000EED
:0C000E00787FE4F6D8FD758120020055D3
:10001A000200D4E493A3F8E493A34003F68001F228
:10002A0008DFF48029E493A3F85407240CC8C333E7
:10003A00C4540F4420C8834004F456800146F6DFB6
:10004A00E4800B010204081020408090020AE47E3A
:10005A00019360BCA3FF543F30E509541FFEE493AB
:10006A00A360010ECF54C025E060A840B8E493A372
:10007A00FAE493A3F8E493A3C8C582C8CAC583CA9D
:10008A00F0A3C8C582C8CAC583CADFE9DEE780BE55
:01020C0000F1
:00000001FF
